{
  "_format": "hh-sol-artifact-1",
  "contractName": "TokenVesting",
  "sourceName": "contracts/TokenVesting.sol",
  "abi": [
    {
      "inputs": [
        {
          "internalType": "contract IERC20",
          "name": "_token",
          "type": "address"
        },
        {
          "internalType": "address",
          "name": "_beneficiary",
          "type": "address"
        },
        {
          "internalType": "uint256",
          "name": "_start",
          "type": "uint256"
        },
        {
          "internalType": "uint256",
          "name": "_duration",
          "type": "uint256"
        }
      ],
      "stateMutability": "nonpayable",
      "type": "constructor"
    },
    {
      "inputs": [
        {
          "internalType": "address",
          "name": "owner",
          "type": "address"
        }
      ],
      "name": "OwnableInvalidOwner",
      "type": "error"
    },
    {
      "inputs": [
        {
          "internalType": "address",
          "name": "account",
          "type": "address"
        }
      ],
      "name": "OwnableUnauthorizedAccount",
      "type": "error"
    },
    {
      "anonymous": false,
      "inputs": [
        {
          "indexed": true,
          "internalType": "address",
          "name": "previousOwner",
          "type": "address"
        },
        {
          "indexed": true,
          "internalType": "address",
          "name": "newOwner",
          "type": "address"
        }
      ],
      "name": "OwnershipTransferred",
      "type": "event"
    },
    {
      "inputs": [],
      "name": "beneficiary",
      "outputs": [
        {
          "internalType": "address",
          "name": "",
          "type": "address"
        }
      ],
      "stateMutability": "view",
      "type": "function"
    },
    {
      "inputs": [],
      "name": "checkBalance",
      "outputs": [
        {
          "internalType": "uint256",
          "name": "",
          "type": "uint256"
        }
      ],
      "stateMutability": "view",
      "type": "function"
    },
    {
      "inputs": [],
      "name": "duration",
      "outputs": [
        {
          "internalType": "uint256",
          "name": "",
          "type": "uint256"
        }
      ],
      "stateMutability": "view",
      "type": "function"
    },
    {
      "inputs": [],
      "name": "owner",
      "outputs": [
        {
          "internalType": "address",
          "name": "",
          "type": "address"
        }
      ],
      "stateMutability": "view",
      "type": "function"
    },
    {
      "inputs": [],
      "name": "releasableAmount",
      "outputs": [
        {
          "internalType": "uint256",
          "name": "",
          "type": "uint256"
        }
      ],
      "stateMutability": "view",
      "type": "function"
    },
    {
      "inputs": [],
      "name": "release",
      "outputs": [],
      "stateMutability": "nonpayable",
      "type": "function"
    },
    {
      "inputs": [],
      "name": "released",
      "outputs": [
        {
          "internalType": "uint256",
          "name": "",
          "type": "uint256"
        }
      ],
      "stateMutability": "view",
      "type": "function"
    },
    {
      "inputs": [],
      "name": "renounceOwnership",
      "outputs": [],
      "stateMutability": "nonpayable",
      "type": "function"
    },
    {
      "inputs": [],
      "name": "start",
      "outputs": [
        {
          "internalType": "uint256",
          "name": "",
          "type": "uint256"
        }
      ],
      "stateMutability": "view",
      "type": "function"
    },
    {
      "inputs": [],
      "name": "token",
      "outputs": [
        {
          "internalType": "contract IERC20",
          "name": "",
          "type": "address"
        }
      ],
      "stateMutability": "view",
      "type": "function"
    },
    {
      "inputs": [
        {
          "internalType": "address",
          "name": "newOwner",
          "type": "address"
        }
      ],
      "name": "transferOwnership",
      "outputs": [],
      "stateMutability": "nonpayable",
      "type": "function"
    },
    {
      "inputs": [],
      "name": "vestedAmount",
      "outputs": [
        {
          "internalType": "uint256",
          "name": "",
          "type": "uint256"
        }
      ],
      "stateMutability": "view",
      "type": "function"
    }
  ],
  "bytecode": "0x60806040523480156200001157600080fd5b506040516200126a3803806200126a833981810160405281019062000037919062000307565b82600073ffffffffffffffffffffffffffffffffffffffff168173ffffffffffffffffffffffffffffffffffffffff1603620000ad5760006040517f1e4fbdf7000000000000000000000000000000000000000000000000000000008152600401620000a491906200038a565b60405180910390fd5b620000be816200015960201b60201c565b5083600160006101000a81548173ffffffffffffffffffffffffffffffffffffffff021916908373ffffffffffffffffffffffffffffffffffffffff16021790555082600460006101000a81548173ffffffffffffffffffffffffffffffffffffffff021916908373ffffffffffffffffffffffffffffffffffffffff160217905550816002819055508060038190555050505050620003a7565b60008060009054906101000a900473ffffffffffffffffffffffffffffffffffffffff169050816000806101000a81548173ffffffffffffffffffffffffffffffffffffffff021916908373ffffffffffffffffffffffffffffffffffffffff1602179055508173ffffffffffffffffffffffffffffffffffffffff168173ffffffffffffffffffffffffffffffffffffffff167f8be0079c531659141344cd1fd0a4f28419497f9722a3daafe3b4186f6b6457e060405160405180910390a35050565b600080fd5b600073ffffffffffffffffffffffffffffffffffffffff82169050919050565b60006200024f8262000222565b9050919050565b6000620002638262000242565b9050919050565b620002758162000256565b81146200028157600080fd5b50565b60008151905062000295816200026a565b92915050565b620002a68162000242565b8114620002b257600080fd5b50565b600081519050620002c6816200029b565b92915050565b6000819050919050565b620002e181620002cc565b8114620002ed57600080fd5b50565b6000815190506200030181620002d6565b92915050565b600080600080608085870312156200032457620003236200021d565b5b6000620003348782880162000284565b94505060206200034787828801620002b5565b93505060406200035a87828801620002f0565b92505060606200036d87828801620002f0565b91505092959194509250565b620003848162000242565b82525050565b6000602082019050620003a1600083018462000379565b92915050565b610eb380620003b76000396000f3fe608060405234801561001057600080fd5b50600436106100b45760003560e01c80638da5cb5b116100715780638da5cb5b146101455780639613252114610163578063be9a655514610181578063c71daccb1461019f578063f2fde38b146101bd578063fc0c546a146101d9576100b4565b80630fb5a6b4146100b957806338af3eed146100d757806344b1231f146100f55780635b94008114610113578063715018a61461013157806386d1a69f1461013b575b600080fd5b6100c16101f7565b6040516100ce91906109f6565b60405180910390f35b6100df6101fd565b6040516100ec9190610a52565b60405180910390f35b6100fd610223565b60405161010a91906109f6565b60405180910390f35b61011b610458565b60405161012891906109f6565b60405180910390f35b610139610474565b005b610143610488565b005b61014d6105fb565b60405161015a9190610a52565b60405180910390f35b61016b610624565b60405161017891906109f6565b60405180910390f35b61018961062a565b60405161019691906109f6565b60405180910390f35b6101a7610630565b6040516101b491906109f6565b60405180910390f35b6101d760048036038101906101d29190610a9e565b6106f5565b005b6101e161077b565b6040516101ee9190610b2a565b60405180910390f35b60035481565b600460009054906101000a900473ffffffffffffffffffffffffffffffffffffffff1681565b600080429050610232816107a1565b6003546002546102429190610b74565b81106102ec57600160009054906101000a900473ffffffffffffffffffffffffffffffffffffffff1673ffffffffffffffffffffffffffffffffffffffff166370a08231306040518263ffffffff1660e01b81526004016102a39190610a52565b602060405180830381865afa1580156102c0573d6000803e3d6000fd5b505050506040513d601f19601f820116820180604052508101906102e49190610bd4565b915050610455565b610390600160009054906101000a900473ffffffffffffffffffffffffffffffffffffffff1673ffffffffffffffffffffffffffffffffffffffff166370a08231306040518263ffffffff1660e01b815260040161034a9190610a52565b602060405180830381865afa158015610367573d6000803e3d6000fd5b505050506040513d601f19601f8201168201806040525081019061038b9190610bd4565b6107a1565b600354600254826103a19190610c01565b600160009054906101000a900473ffffffffffffffffffffffffffffffffffffffff1673ffffffffffffffffffffffffffffffffffffffff166370a08231306040518263ffffffff1660e01b81526004016103fc9190610a52565b602060405180830381865afa158015610419573d6000803e3d6000fd5b505050506040513d601f19601f8201168201806040525081019061043d9190610bd4565b6104479190610c35565b6104519190610ca6565b9150505b90565b6000600554610465610223565b61046f9190610c01565b905090565b61047c61083a565b61048660006108c1565b565b6002544210156104cd576040517f08c379a00000000000000000000000000000000000000000000000000000000081526004016104c490610d34565b60405180910390fd5b60006104d7610458565b90506000811161051c576040517f08c379a000000000000000000000000000000000000000000000000000000000815260040161051390610da0565b60405180910390fd5b806005600082825461052e9190610b74565b92505081905550600160009054906101000a900473ffffffffffffffffffffffffffffffffffffffff1673ffffffffffffffffffffffffffffffffffffffff1663a9059cbb600460009054906101000a900473ffffffffffffffffffffffffffffffffffffffff16836040518363ffffffff1660e01b81526004016105b4929190610dc0565b6020604051808303816000875af11580156105d3573d6000803e3d6000fd5b505050506040513d601f19601f820116820180604052508101906105f79190610e21565b5050565b60008060009054906101000a900473ffffffffffffffffffffffffffffffffffffffff16905090565b60055481565b60025481565b6000600160009054906101000a900473ffffffffffffffffffffffffffffffffffffffff1673ffffffffffffffffffffffffffffffffffffffff166370a08231600460009054906101000a900473ffffffffffffffffffffffffffffffffffffffff166040518263ffffffff1660e01b81526004016106af9190610a52565b602060405180830381865afa1580156106cc573d6000803e3d6000fd5b505050506040513d601f19601f820116820180604052508101906106f09190610bd4565b905090565b6106fd61083a565b600073ffffffffffffffffffffffffffffffffffffffff168173ffffffffffffffffffffffffffffffffffffffff160361076f5760006040517f1e4fbdf70000000000000000000000000000000000000000000000000000000081526004016107669190610a52565b60405180910390fd5b610778816108c1565b50565b600160009054906101000a900473ffffffffffffffffffffffffffffffffffffffff1681565b610837816040516024016107b591906109f6565b6040516020818303038152906040527ff82c50f1000000000000000000000000000000000000000000000000000000007bffffffffffffffffffffffffffffffffffffffffffffffffffffffff19166020820180517bffffffffffffffffffffffffffffffffffffffffffffffffffffffff8381831617835250505050610985565b50565b61084261099f565b73ffffffffffffffffffffffffffffffffffffffff166108606105fb565b73ffffffffffffffffffffffffffffffffffffffff16146108bf5761088361099f565b6040517f118cdaa70000000000000000000000000000000000000000000000000000000081526004016108b69190610a52565b60405180910390fd5b565b60008060009054906101000a900473ffffffffffffffffffffffffffffffffffffffff169050816000806101000a81548173ffffffffffffffffffffffffffffffffffffffff021916908373ffffffffffffffffffffffffffffffffffffffff1602179055508173ffffffffffffffffffffffffffffffffffffffff168173ffffffffffffffffffffffffffffffffffffffff167f8be0079c531659141344cd1fd0a4f28419497f9722a3daafe3b4186f6b6457e060405160405180910390a35050565b61099c816109946109a76109c8565b63ffffffff16565b50565b600033905090565b60006a636f6e736f6c652e6c6f679050600080835160208501845afa505050565b6109d3819050919050565b6109db610e4e565b565b6000819050919050565b6109f0816109dd565b82525050565b6000602082019050610a0b60008301846109e7565b92915050565b600073ffffffffffffffffffffffffffffffffffffffff82169050919050565b6000610a3c82610a11565b9050919050565b610a4c81610a31565b82525050565b6000602082019050610a676000830184610a43565b92915050565b600080fd5b610a7b81610a31565b8114610a8657600080fd5b50565b600081359050610a9881610a72565b92915050565b600060208284031215610ab457610ab3610a6d565b5b6000610ac284828501610a89565b91505092915050565b6000819050919050565b6000610af0610aeb610ae684610a11565b610acb565b610a11565b9050919050565b6000610b0282610ad5565b9050919050565b6000610b1482610af7565b9050919050565b610b2481610b09565b82525050565b6000602082019050610b3f6000830184610b1b565b92915050565b7f4e487b7100000000000000000000000000000000000000000000000000000000600052601160045260246000fd5b6000610b7f826109dd565b9150610b8a836109dd565b9250828201905080821115610ba257610ba1610b45565b5b92915050565b610bb1816109dd565b8114610bbc57600080fd5b50565b600081519050610bce81610ba8565b92915050565b600060208284031215610bea57610be9610a6d565b5b6000610bf884828501610bbf565b91505092915050565b6000610c0c826109dd565b9150610c17836109dd565b9250828203905081811115610c2f57610c2e610b45565b5b92915050565b6000610c40826109dd565b9150610c4b836109dd565b9250828202610c59816109dd565b91508282048414831517610c7057610c6f610b45565b5b5092915050565b7f4e487b7100000000000000000000000000000000000000000000000000000000600052601260045260246000fd5b6000610cb1826109dd565b9150610cbc836109dd565b925082610ccc57610ccb610c77565b5b828204905092915050565b600082825260208201905092915050565b7f56657374696e67206e6f74207374617274656400000000000000000000000000600082015250565b6000610d1e601383610cd7565b9150610d2982610ce8565b602082019050919050565b60006020820190508181036000830152610d4d81610d11565b9050919050565b7f4e6f20746f6b656e732061726520647565000000000000000000000000000000600082015250565b6000610d8a601183610cd7565b9150610d9582610d54565b602082019050919050565b60006020820190508181036000830152610db981610d7d565b9050919050565b6000604082019050610dd56000830185610a43565b610de260208301846109e7565b9392505050565b60008115159050919050565b610dfe81610de9565b8114610e0957600080fd5b50565b600081519050610e1b81610df5565b92915050565b600060208284031215610e3757610e36610a6d565b5b6000610e4584828501610e0c565b91505092915050565b7f4e487b7100000000000000000000000000000000000000000000000000000000600052605160045260246000fdfea2646970667358221220cbc14538a9bfa448d38ecb2e06a14fe2c6816acf5e25f4473b4c43c2e8dc540864736f6c63430008140033",
  "linkReferences": {},
  "deployedLinkReferences": {}
}